{
  "contractName": "CollectionFactory",
  "abi": [
    {
      "anonymous": false,
      "inputs": [
        {
          "indexed": false,
          "internalType": "uint256",
          "name": "collectionId",
          "type": "uint256"
        },
        {
          "indexed": false,
          "internalType": "address",
          "name": "collectionAddress",
          "type": "address"
        }
      ],
      "name": "CollectionCreated",
      "type": "event"
    },
    {
      "inputs": [
        {
          "internalType": "uint256",
          "name": "",
          "type": "uint256"
        }
      ],
      "name": "idToCollection",
      "outputs": [
        {
          "internalType": "contract Collection",
          "name": "",
          "type": "address"
        }
      ],
      "stateMutability": "view",
      "type": "function",
      "constant": true
    },
    {
      "inputs": [
        {
          "internalType": "string",
          "name": "_name",
          "type": "string"
        },
        {
          "internalType": "string",
          "name": "_symbol",
          "type": "string"
        }
      ],
      "name": "createCollection",
      "outputs": [],
      "stateMutability": "nonpayable",
      "type": "function"
    }
  ],
  "bytecode": "0x60806040526000805534801561001457600080fd5b50614528806100246000396000f3fe60806040523480156200001157600080fd5b50600436106200003a5760003560e01c8063176b9b75146200003f578063e93b7b7d146200005f575b600080fd5b6200005d60048036038101906200005791906200033d565b62000095565b005b6200007d6004803603810190620000779190620003fd565b62000186565b6040516200008c9190620004ba565b60405180910390f35b6001600080828254620000a9919062000506565b925050819055506000828233604051620000c390620001b9565b620000d1939291906200061b565b604051809103906000f080158015620000ee573d6000803e3d6000fd5b50905080600160008054815260200190815260200160002060006101000a81548173ffffffffffffffffffffffffffffffffffffffff021916908373ffffffffffffffffffffffffffffffffffffffff1602179055507f18c1b1c8856053698af995ce4384c0f661562c52a65d6dd29b910849d5e1bfca600054826040516200017992919062000677565b60405180910390a1505050565b60016020528060005260406000206000915054906101000a900473ffffffffffffffffffffffffffffffffffffffff1681565b613e4e80620006a583390190565b6000604051905090565b600080fd5b600080fd5b600080fd5b600080fd5b6000601f19601f8301169050919050565b7f4e487b7100000000000000000000000000000000000000000000000000000000600052604160045260246000fd5b6200023082620001e5565b810181811067ffffffffffffffff82111715620002525762000251620001f6565b5b80604052505050565b600062000267620001c7565b905062000275828262000225565b919050565b600067ffffffffffffffff821115620002985762000297620001f6565b5b620002a382620001e5565b9050602081019050919050565b82818337600083830152505050565b6000620002d6620002d0846200027a565b6200025b565b905082815260208101848484011115620002f557620002f4620001e0565b5b62000302848285620002b0565b509392505050565b600082601f830112620003225762000321620001db565b5b813562000334848260208601620002bf565b91505092915050565b60008060408385031215620003575762000356620001d1565b5b600083013567ffffffffffffffff811115620003785762000377620001d6565b5b62000386858286016200030a565b925050602083013567ffffffffffffffff811115620003aa57620003a9620001d6565b5b620003b8858286016200030a565b9150509250929050565b6000819050919050565b620003d781620003c2565b8114620003e357600080fd5b50565b600081359050620003f781620003cc565b92915050565b600060208284031215620004165762000415620001d1565b5b60006200042684828501620003e6565b91505092915050565b600073ffffffffffffffffffffffffffffffffffffffff82169050919050565b6000819050919050565b60006200047a620004746200046e846200042f565b6200044f565b6200042f565b9050919050565b60006200048e8262000459565b9050919050565b6000620004a28262000481565b9050919050565b620004b48162000495565b82525050565b6000602082019050620004d16000830184620004a9565b92915050565b7f4e487b7100000000000000000000000000000000000000000000000000000000600052601160045260246000fd5b60006200051382620003c2565b91506200052083620003c2565b9250827fffffffffffffffffffffffffffffffffffffffffffffffffffffffffffffffff03821115620005585762000557620004d7565b5b828201905092915050565b600081519050919050565b600082825260208201905092915050565b60005b838110156200059f57808201518184015260208101905062000582565b83811115620005af576000848401525b50505050565b6000620005c28262000563565b620005ce81856200056e565b9350620005e08185602086016200057f565b620005eb81620001e5565b840191505092915050565b600062000603826200042f565b9050919050565b6200061581620005f6565b82525050565b60006060820190508181036000830152620006378186620005b5565b905081810360208301526200064d8185620005b5565b90506200065e60408301846200060a565b949350505050565b6200067181620003c2565b82525050565b60006040820190506200068e600083018562000666565b6200069d60208301846200060a565b939250505056fe60806040523480156200001157600080fd5b5060405162003e4e38038062003e4e833981810160405281019062000037919062000369565b8282816000908051906020019062000051929190620000b7565b5080600190805190602001906200006a929190620000b7565b50505080600960006101000a81548173ffffffffffffffffffffffffffffffffffffffff021916908373ffffffffffffffffffffffffffffffffffffffff16021790555050505062000468565b828054620000c59062000432565b90600052602060002090601f016020900481019282620000e9576000855562000135565b82601f106200010457805160ff191683800117855562000135565b8280016001018555821562000135579182015b828111156200013457825182559160200191906001019062000117565b5b50905062000144919062000148565b5090565b5b808211156200016357600081600090555060010162000149565b5090565b6000604051905090565b600080fd5b600080fd5b600080fd5b600080fd5b6000601f19601f8301169050919050565b7f4e487b7100000000000000000000000000000000000000000000000000000000600052604160045260246000fd5b620001d08262000185565b810181811067ffffffffffffffff82111715620001f257620001f162000196565b5b80604052505050565b60006200020762000167565b9050620002158282620001c5565b919050565b600067ffffffffffffffff82111562000238576200023762000196565b5b620002438262000185565b9050602081019050919050565b60005b838110156200027057808201518184015260208101905062000253565b8381111562000280576000848401525b50505050565b60006200029d62000297846200021a565b620001fb565b905082815260208101848484011115620002bc57620002bb62000180565b5b620002c984828562000250565b509392505050565b600082601f830112620002e957620002e86200017b565b5b8151620002fb84826020860162000286565b91505092915050565b600073ffffffffffffffffffffffffffffffffffffffff82169050919050565b6000620003318262000304565b9050919050565b620003438162000324565b81146200034f57600080fd5b50565b600081519050620003638162000338565b92915050565b60008060006060848603121562000385576200038462000171565b5b600084015167ffffffffffffffff811115620003a657620003a562000176565b5b620003b486828701620002d1565b935050602084015167ffffffffffffffff811115620003d857620003d762000176565b5b620003e686828701620002d1565b9250506040620003f98682870162000352565b9150509250925092565b7f4e487b7100000000000000000000000000000000000000000000000000000000600052602260045260246000fd5b600060028204905060018216806200044b57607f821691505b6020821081141562000462576200046162000403565b5b50919050565b6139d680620004786000396000f3fe608060405234801561001057600080fd5b50600436106101585760003560e01c806395d89b41116100c3578063c772745a1161007c578063c772745a146103fc578063c87b56dd1461042c578063cd45819a1461045c578063e985e9c51461048c578063f1d1c097146104bc578063fa06fe86146104d857610158565b806395d89b41146103135780639859aca314610331578063a22cb46514610363578063ab116c2e1461037f578063b88d4fde146103af578063c1c9fc53146103cb57610158565b806342966c681161011557806342966c681461022f5780635cd30fdd1461024b5780636352211e1461026757806370a082311461029757806392eb104c146102c757806394ab67fe146102f757610158565b806301ffc9a71461015d57806306fdde031461018d578063081812fc146101ab578063095ea7b3146101db57806323b872dd146101f757806342842e0e14610213575b600080fd5b610177600480360381019061017291906124c1565b6104f6565b6040516101849190612509565b60405180910390f35b6101956105d8565b6040516101a291906125bd565b60405180910390f35b6101c560048036038101906101c09190612615565b61066a565b6040516101d29190612683565b60405180910390f35b6101f560048036038101906101f091906126ca565b6106b0565b005b610211600480360381019061020c919061270a565b6107c8565b005b61022d6004803603810190610228919061270a565b610828565b005b61024960048036038101906102449190612615565b610848565b005b61026560048036038101906102609190612892565b610962565b005b610281600480360381019061027c9190612615565b610b4f565b60405161028e9190612683565b60405180910390f35b6102b160048036038101906102ac91906128ee565b610c01565b6040516102be919061292a565b60405180910390f35b6102e160048036038101906102dc9190612615565b610cb9565b6040516102ee9190612683565b60405180910390f35b610311600480360381019061030c91906126ca565b610ccb565b005b61031b610d52565b60405161032891906125bd565b60405180910390f35b61034b60048036038101906103469190612615565b610de4565b60405161035a939291906129bc565b60405180910390f35b61037d60048036038101906103789190612a26565b610ea3565b005b61039960048036038101906103949190612615565b610eb9565b6040516103a6919061292a565b60405180910390f35b6103c960048036038101906103c49190612b07565b610f08565b005b6103e560048036038101906103e09190612615565b610f6a565b6040516103f3929190612b8a565b60405180910390f35b61041660048036038101906104119190612bb3565b610f8e565b604051610423919061292a565b60405180910390f35b61044660048036038101906104419190612615565b6110a7565b60405161045391906125bd565b60405180910390f35b61047660048036038101906104719190612615565b6111ba565b6040516104839190612cda565b60405180910390f35b6104a660048036038101906104a19190612cfc565b6112c4565b6040516104b39190612509565b60405180910390f35b6104d660048036038101906104d19190612d61565b611358565b005b6104e0611482565b6040516104ed9190612683565b60405180910390f35b60007f80ac58cd000000000000000000000000000000000000000000000000000000007bffffffffffffffffffffffffffffffffffffffffffffffffffffffff1916827bffffffffffffffffffffffffffffffffffffffffffffffffffffffff191614806105c157507f5b5e139f000000000000000000000000000000000000000000000000000000007bffffffffffffffffffffffffffffffffffffffffffffffffffffffff1916827bffffffffffffffffffffffffffffffffffffffffffffffffffffffff1916145b806105d157506105d0826114a8565b5b9050919050565b6060600080546105e790612dd0565b80601f016020809104026020016040519081016040528092919081815260200182805461061390612dd0565b80156106605780601f1061063557610100808354040283529160200191610660565b820191906000526020600020905b81548152906001019060200180831161064357829003601f168201915b5050505050905090565b600061067582611512565b6004600083815260200190815260200160002060009054906101000a900473ffffffffffffffffffffffffffffffffffffffff169050919050565b60006106bb82610b4f565b90508073ffffffffffffffffffffffffffffffffffffffff168373ffffffffffffffffffffffffffffffffffffffff16141561072c576040517f08c379a000000000000000000000000000000000000000000000000000000000815260040161072390612e74565b60405180910390fd5b8073ffffffffffffffffffffffffffffffffffffffff1661074b61155d565b73ffffffffffffffffffffffffffffffffffffffff16148061077a57506107798161077461155d565b6112c4565b5b6107b9576040517f08c379a00000000000000000000000000000000000000000000000000000000081526004016107b090612f06565b60405180910390fd5b6107c38383611565565b505050565b6107d96107d361155d565b8261161e565b610818576040517f08c379a000000000000000000000000000000000000000000000000000000000815260040161080f90612f98565b60405180910390fd5b6108238383836116b3565b505050565b61084383838360405180602001604052806000815250610f08565b505050565b600960009054906101000a900473ffffffffffffffffffffffffffffffffffffffff1673ffffffffffffffffffffffffffffffffffffffff163373ffffffffffffffffffffffffffffffffffffffff16146108d8576040517f08c379a00000000000000000000000000000000000000000000000000000000081526004016108cf9061302a565b60405180910390fd5b6000600a60008381526020019081526020016000206040518060400160405290816000820154815260200160018201548152505090508060200151421015610955576040517f08c379a000000000000000000000000000000000000000000000000000000000815260040161094c906130bc565b60405180910390fd5b61095e8261191a565b5050565b8161096c81610b4f565b73ffffffffffffffffffffffffffffffffffffffff163373ffffffffffffffffffffffffffffffffffffffff16146109d9576040517f08c379a00000000000000000000000000000000000000000000000000000000081526004016109d09061314e565b60405180910390fd5b6000600a60008581526020019081526020016000206040518060400160405290816000820154815260200160018201548152505090508060200151421115610a56576040517f08c379a0000000000000000000000000000000000000000000000000000000008152600401610a4d906131ba565b60405180910390fd5b610a60600861196d565b6000610a6c6008611983565b90506000604051806060016040528087815260200186815260200160006005811115610a9b57610a9a612945565b5b815250905080600b6000848152602001908152602001600020600082015181600001556020820151816001019080519060200190610ada92919061233f565b5060408201518160020160006101000a81548160ff02191690836005811115610b0657610b05612945565b5b02179055509050507f3cf9741f7f2fdd229f6c9f10df4ace5dd49b351740a065507855281720a827038287604051610b3f929190612b8a565b60405180910390a1505050505050565b6000806002600084815260200190815260200160002060009054906101000a900473ffffffffffffffffffffffffffffffffffffffff169050600073ffffffffffffffffffffffffffffffffffffffff168173ffffffffffffffffffffffffffffffffffffffff161415610bf8576040517f08c379a0000000000000000000000000000000000000000000000000000000008152600401610bef90613226565b60405180910390fd5b80915050919050565b60008073ffffffffffffffffffffffffffffffffffffffff168273ffffffffffffffffffffffffffffffffffffffff161415610c72576040517f08c379a0000000000000000000000000000000000000000000000000000000008152600401610c69906132b8565b60405180910390fd5b600360008373ffffffffffffffffffffffffffffffffffffffff1673ffffffffffffffffffffffffffffffffffffffff168152602001908152602001600020549050919050565b6000610cc482610b4f565b9050919050565b80610cd581610b4f565b73ffffffffffffffffffffffffffffffffffffffff163373ffffffffffffffffffffffffffffffffffffffff1614610d42576040517f08c379a0000000000000000000000000000000000000000000000000000000008152600401610d399061314e565b60405180910390fd5b610d4d3384846107c8565b505050565b606060018054610d6190612dd0565b80601f0160208091040260200160405190810160405280929190818152602001828054610d8d90612dd0565b8015610dda5780601f10610daf57610100808354040283529160200191610dda565b820191906000526020600020905b815481529060010190602001808311610dbd57829003601f168201915b5050505050905090565b600b602052806000526040600020600091509050806000015490806001018054610e0d90612dd0565b80601f0160208091040260200160405190810160405280929190818152602001828054610e3990612dd0565b8015610e865780601f10610e5b57610100808354040283529160200191610e86565b820191906000526020600020905b815481529060010190602001808311610e6957829003601f168201915b5050505050908060020160009054906101000a900460ff16905083565b610eb5610eae61155d565b8383611991565b5050565b600080600a6000848152602001908152602001600020604051806040016040529081600082015481526020016001820154815250509050428160200151610f009190613307565b915050919050565b610f19610f1361155d565b8361161e565b610f58576040517f08c379a0000000000000000000000000000000000000000000000000000000008152600401610f4f90612f98565b60405180910390fd5b610f6484848484611afe565b50505050565b600a6020528060005260406000206000915090508060000154908060010154905082565b6000600960009054906101000a900473ffffffffffffffffffffffffffffffffffffffff1673ffffffffffffffffffffffffffffffffffffffff163373ffffffffffffffffffffffffffffffffffffffff1614611020576040517f08c379a00000000000000000000000000000000000000000000000000000000081526004016110179061302a565b60405180910390fd5b600061102c6007611983565b9050611038600761196d565b6110428582611b5a565b61104c8185611b78565b60006040518060400160405280428152602001854261106b919061333b565b815250905080600a6000848152602001908152602001600020600082015181600001556020820151816001015590505081925050509392505050565b60606110b282611512565b60006006600084815260200190815260200160002080546110d290612dd0565b80601f01602080910402602001604051908101604052809291908181526020018280546110fe90612dd0565b801561114b5780601f106111205761010080835404028352916020019161114b565b820191906000526020600020905b81548152906001019060200180831161112e57829003601f168201915b50505050509050600061115c611bec565b90506000815114156111725781925050506111b5565b6000825111156111a757808260405160200161118f9291906133cd565b604051602081830303815290604052925050506111b5565b6111b084611c03565b925050505b919050565b6111c26123c5565b6000600b6000848152602001908152602001600020604051806060016040529081600082015481526020016001820180546111fc90612dd0565b80601f016020809104026020016040519081016040528092919081815260200182805461122890612dd0565b80156112755780601f1061124a57610100808354040283529160200191611275565b820191906000526020600020905b81548152906001019060200180831161125857829003601f168201915b505050505081526020016002820160009054906101000a900460ff1660058111156112a3576112a2612945565b5b60058111156112b5576112b4612945565b5b81525050905080915050919050565b6000600560008473ffffffffffffffffffffffffffffffffffffffff1673ffffffffffffffffffffffffffffffffffffffff16815260200190815260200160002060008373ffffffffffffffffffffffffffffffffffffffff1673ffffffffffffffffffffffffffffffffffffffff16815260200190815260200160002060009054906101000a900460ff16905092915050565b600960009054906101000a900473ffffffffffffffffffffffffffffffffffffffff1673ffffffffffffffffffffffffffffffffffffffff163373ffffffffffffffffffffffffffffffffffffffff16146113e8576040517f08c379a00000000000000000000000000000000000000000000000000000000081526004016113df9061302a565b60405180910390fd5b6000600b6000848152602001908152602001600020905060008160020160009054906101000a900460ff169050828260020160006101000a81548160ff0219169083600581111561143c5761143b612945565b5b02179055507f1d6563ba8420797802255e0721d51f3b844d3d90c6515c3431be9f13e58a5074848285604051611474939291906133f1565b60405180910390a150505050565b600960009054906101000a900473ffffffffffffffffffffffffffffffffffffffff1681565b60007f01ffc9a7000000000000000000000000000000000000000000000000000000007bffffffffffffffffffffffffffffffffffffffffffffffffffffffff1916827bffffffffffffffffffffffffffffffffffffffffffffffffffffffff1916149050919050565b61151b81611c6b565b61155a576040517f08c379a000000000000000000000000000000000000000000000000000000000815260040161155190613226565b60405180910390fd5b50565b600033905090565b816004600083815260200190815260200160002060006101000a81548173ffffffffffffffffffffffffffffffffffffffff021916908373ffffffffffffffffffffffffffffffffffffffff160217905550808273ffffffffffffffffffffffffffffffffffffffff166115d883610b4f565b73ffffffffffffffffffffffffffffffffffffffff167f8c5be1e5ebec7d5bd14f71427d1e84f3dd0314c0f7b2291e5b200ac8c7c3b92560405160405180910390a45050565b60008061162a83610b4f565b90508073ffffffffffffffffffffffffffffffffffffffff168473ffffffffffffffffffffffffffffffffffffffff16148061166c575061166b81856112c4565b5b806116aa57508373ffffffffffffffffffffffffffffffffffffffff166116928461066a565b73ffffffffffffffffffffffffffffffffffffffff16145b91505092915050565b8273ffffffffffffffffffffffffffffffffffffffff166116d382610b4f565b73ffffffffffffffffffffffffffffffffffffffff1614611729576040517f08c379a00000000000000000000000000000000000000000000000000000000081526004016117209061349a565b60405180910390fd5b600073ffffffffffffffffffffffffffffffffffffffff168273ffffffffffffffffffffffffffffffffffffffff161415611799576040517f08c379a00000000000000000000000000000000000000000000000000000000081526004016117909061352c565b60405180910390fd5b6117a4838383611cd7565b6117af600082611565565b6001600360008573ffffffffffffffffffffffffffffffffffffffff1673ffffffffffffffffffffffffffffffffffffffff16815260200190815260200160002060008282546117ff9190613307565b925050819055506001600360008473ffffffffffffffffffffffffffffffffffffffff1673ffffffffffffffffffffffffffffffffffffffff1681526020019081526020016000206000828254611856919061333b565b92505081905550816002600083815260200190815260200160002060006101000a81548173ffffffffffffffffffffffffffffffffffffffff021916908373ffffffffffffffffffffffffffffffffffffffff160217905550808273ffffffffffffffffffffffffffffffffffffffff168473ffffffffffffffffffffffffffffffffffffffff167fddf252ad1be2c89b69c2b068fc378daa952ba7f163c4a11628f55a4df523b3ef60405160405180910390a4611915838383611cdc565b505050565b61192381611ce1565b600060066000838152602001908152602001600020805461194390612dd0565b90501461196a5760066000828152602001908152602001600020600061196991906123f8565b5b50565b6001816000016000828254019250508190555050565b600081600001549050919050565b8173ffffffffffffffffffffffffffffffffffffffff168373ffffffffffffffffffffffffffffffffffffffff161415611a00576040517f08c379a00000000000000000000000000000000000000000000000000000000081526004016119f790613598565b60405180910390fd5b80600560008573ffffffffffffffffffffffffffffffffffffffff1673ffffffffffffffffffffffffffffffffffffffff16815260200190815260200160002060008473ffffffffffffffffffffffffffffffffffffffff1673ffffffffffffffffffffffffffffffffffffffff16815260200190815260200160002060006101000a81548160ff0219169083151502179055508173ffffffffffffffffffffffffffffffffffffffff168373ffffffffffffffffffffffffffffffffffffffff167f17307eab39ab6107e8899845ad3d59bd9653f200f220920489ca2b5937696c3183604051611af19190612509565b60405180910390a3505050565b611b098484846116b3565b611b1584848484611dfe565b611b54576040517f08c379a0000000000000000000000000000000000000000000000000000000008152600401611b4b9061362a565b60405180910390fd5b50505050565b611b74828260405180602001604052806000815250611f86565b5050565b611b8182611c6b565b611bc0576040517f08c379a0000000000000000000000000000000000000000000000000000000008152600401611bb7906136bc565b60405180910390fd5b80600660008481526020019081526020016000209080519060200190611be792919061233f565b505050565b606060405180602001604052806000815250905090565b6060611c0e82611512565b6000611c18611bec565b90506000815111611c385760405180602001604052806000815250611c63565b80611c4284611fe1565b604051602001611c539291906133cd565b6040516020818303038152906040525b915050919050565b60008073ffffffffffffffffffffffffffffffffffffffff166002600084815260200190815260200160002060009054906101000a900473ffffffffffffffffffffffffffffffffffffffff1673ffffffffffffffffffffffffffffffffffffffff1614159050919050565b505050565b505050565b6000611cec82610b4f565b9050611cfa81600084611cd7565b611d05600083611565565b6001600360008373ffffffffffffffffffffffffffffffffffffffff1673ffffffffffffffffffffffffffffffffffffffff1681526020019081526020016000206000828254611d559190613307565b925050819055506002600083815260200190815260200160002060006101000a81549073ffffffffffffffffffffffffffffffffffffffff021916905581600073ffffffffffffffffffffffffffffffffffffffff168273ffffffffffffffffffffffffffffffffffffffff167fddf252ad1be2c89b69c2b068fc378daa952ba7f163c4a11628f55a4df523b3ef60405160405180910390a4611dfa81600084611cdc565b5050565b6000611e1f8473ffffffffffffffffffffffffffffffffffffffff16612142565b15611f79578373ffffffffffffffffffffffffffffffffffffffff1663150b7a02611e4861155d565b8786866040518563ffffffff1660e01b8152600401611e6a9493929190613731565b6020604051808303816000875af1925050508015611ea657506040513d601f19601f82011682018060405250810190611ea39190613792565b60015b611f29573d8060008114611ed6576040519150601f19603f3d011682016040523d82523d6000602084013e611edb565b606091505b50600081511415611f21576040517f08c379a0000000000000000000000000000000000000000000000000000000008152600401611f189061362a565b60405180910390fd5b805181602001fd5b63150b7a0260e01b7bffffffffffffffffffffffffffffffffffffffffffffffffffffffff1916817bffffffffffffffffffffffffffffffffffffffffffffffffffffffff191614915050611f7e565b600190505b949350505050565b611f908383612165565b611f9d6000848484611dfe565b611fdc576040517f08c379a0000000000000000000000000000000000000000000000000000000008152600401611fd39061362a565b60405180910390fd5b505050565b60606000821415612029576040518060400160405280600181526020017f3000000000000000000000000000000000000000000000000000000000000000815250905061213d565b600082905060005b6000821461205b578080612044906137bf565b915050600a826120549190613837565b9150612031565b60008167ffffffffffffffff81111561207757612076612767565b5b6040519080825280601f01601f1916602001820160405280156120a95781602001600182028036833780820191505090505b5090505b60008514612136576001826120c29190613307565b9150600a856120d19190613868565b60306120dd919061333b565b60f81b8183815181106120f3576120f2613899565b5b60200101907effffffffffffffffffffffffffffffffffffffffffffffffffffffffffffff1916908160001a905350600a8561212f9190613837565b94506120ad565b8093505050505b919050565b6000808273ffffffffffffffffffffffffffffffffffffffff163b119050919050565b600073ffffffffffffffffffffffffffffffffffffffff168273ffffffffffffffffffffffffffffffffffffffff1614156121d5576040517f08c379a00000000000000000000000000000000000000000000000000000000081526004016121cc90613914565b60405180910390fd5b6121de81611c6b565b1561221e576040517f08c379a000000000000000000000000000000000000000000000000000000000815260040161221590613980565b60405180910390fd5b61222a60008383611cd7565b6001600360008473ffffffffffffffffffffffffffffffffffffffff1673ffffffffffffffffffffffffffffffffffffffff168152602001908152602001600020600082825461227a919061333b565b92505081905550816002600083815260200190815260200160002060006101000a81548173ffffffffffffffffffffffffffffffffffffffff021916908373ffffffffffffffffffffffffffffffffffffffff160217905550808273ffffffffffffffffffffffffffffffffffffffff16600073ffffffffffffffffffffffffffffffffffffffff167fddf252ad1be2c89b69c2b068fc378daa952ba7f163c4a11628f55a4df523b3ef60405160405180910390a461233b60008383611cdc565b5050565b82805461234b90612dd0565b90600052602060002090601f01602090048101928261236d57600085556123b4565b82601f1061238657805160ff19168380011785556123b4565b828001600101855582156123b4579182015b828111156123b3578251825591602001919060010190612398565b5b5090506123c19190612438565b5090565b60405180606001604052806000815260200160608152602001600060058111156123f2576123f1612945565b5b81525090565b50805461240490612dd0565b6000825580601f106124165750612435565b601f0160209004906000526020600020908101906124349190612438565b5b50565b5b80821115612451576000816000905550600101612439565b5090565b6000604051905090565b600080fd5b600080fd5b60007fffffffff0000000000000000000000000000000000000000000000000000000082169050919050565b61249e81612469565b81146124a957600080fd5b50565b6000813590506124bb81612495565b92915050565b6000602082840312156124d7576124d661245f565b5b60006124e5848285016124ac565b91505092915050565b60008115159050919050565b612503816124ee565b82525050565b600060208201905061251e60008301846124fa565b92915050565b600081519050919050565b600082825260208201905092915050565b60005b8381101561255e578082015181840152602081019050612543565b8381111561256d576000848401525b50505050565b6000601f19601f8301169050919050565b600061258f82612524565b612599818561252f565b93506125a9818560208601612540565b6125b281612573565b840191505092915050565b600060208201905081810360008301526125d78184612584565b905092915050565b6000819050919050565b6125f2816125df565b81146125fd57600080fd5b50565b60008135905061260f816125e9565b92915050565b60006020828403121561262b5761262a61245f565b5b600061263984828501612600565b91505092915050565b600073ffffffffffffffffffffffffffffffffffffffff82169050919050565b600061266d82612642565b9050919050565b61267d81612662565b82525050565b60006020820190506126986000830184612674565b92915050565b6126a781612662565b81146126b257600080fd5b50565b6000813590506126c48161269e565b92915050565b600080604083850312156126e1576126e061245f565b5b60006126ef858286016126b5565b925050602061270085828601612600565b9150509250929050565b6000806000606084860312156127235761272261245f565b5b6000612731868287016126b5565b9350506020612742868287016126b5565b925050604061275386828701612600565b9150509250925092565b600080fd5b600080fd5b7f4e487b7100000000000000000000000000000000000000000000000000000000600052604160045260246000fd5b61279f82612573565b810181811067ffffffffffffffff821117156127be576127bd612767565b5b80604052505050565b60006127d1612455565b90506127dd8282612796565b919050565b600067ffffffffffffffff8211156127fd576127fc612767565b5b61280682612573565b9050602081019050919050565b82818337600083830152505050565b6000612835612830846127e2565b6127c7565b90508281526020810184848401111561285157612850612762565b5b61285c848285612813565b509392505050565b600082601f8301126128795761287861275d565b5b8135612889848260208601612822565b91505092915050565b600080604083850312156128a9576128a861245f565b5b60006128b785828601612600565b925050602083013567ffffffffffffffff8111156128d8576128d7612464565b5b6128e485828601612864565b9150509250929050565b6000602082840312156129045761290361245f565b5b6000612912848285016126b5565b91505092915050565b612924816125df565b82525050565b600060208201905061293f600083018461291b565b92915050565b7f4e487b7100000000000000000000000000000000000000000000000000000000600052602160045260246000fd5b6006811061298557612984612945565b5b50565b600081905061299682612974565b919050565b60006129a682612988565b9050919050565b6129b68161299b565b82525050565b60006060820190506129d1600083018661291b565b81810360208301526129e38185612584565b90506129f260408301846129ad565b949350505050565b612a03816124ee565b8114612a0e57600080fd5b50565b600081359050612a20816129fa565b92915050565b60008060408385031215612a3d57612a3c61245f565b5b6000612a4b858286016126b5565b9250506020612a5c85828601612a11565b9150509250929050565b600067ffffffffffffffff821115612a8157612a80612767565b5b612a8a82612573565b9050602081019050919050565b6000612aaa612aa584612a66565b6127c7565b905082815260208101848484011115612ac657612ac5612762565b5b612ad1848285612813565b509392505050565b600082601f830112612aee57612aed61275d565b5b8135612afe848260208601612a97565b91505092915050565b60008060008060808587031215612b2157612b2061245f565b5b6000612b2f878288016126b5565b9450506020612b40878288016126b5565b9350506040612b5187828801612600565b925050606085013567ffffffffffffffff811115612b7257612b71612464565b5b612b7e87828801612ad9565b91505092959194509250565b6000604082019050612b9f600083018561291b565b612bac602083018461291b565b9392505050565b600080600060608486031215612bcc57612bcb61245f565b5b6000612bda868287016126b5565b935050602084013567ffffffffffffffff811115612bfb57612bfa612464565b5b612c0786828701612864565b9250506040612c1886828701612600565b9150509250925092565b612c2b816125df565b82525050565b600082825260208201905092915050565b6000612c4d82612524565b612c578185612c31565b9350612c67818560208601612540565b612c7081612573565b840191505092915050565b612c848161299b565b82525050565b6000606083016000830151612ca26000860182612c22565b5060208301518482036020860152612cba8282612c42565b9150506040830151612ccf6040860182612c7b565b508091505092915050565b60006020820190508181036000830152612cf48184612c8a565b905092915050565b60008060408385031215612d1357612d1261245f565b5b6000612d21858286016126b5565b9250506020612d32858286016126b5565b9150509250929050565b60068110612d4957600080fd5b50565b600081359050612d5b81612d3c565b92915050565b60008060408385031215612d7857612d7761245f565b5b6000612d8685828601612600565b9250506020612d9785828601612d4c565b9150509250929050565b7f4e487b7100000000000000000000000000000000000000000000000000000000600052602260045260246000fd5b60006002820490506001821680612de857607f821691505b60208210811415612dfc57612dfb612da1565b5b50919050565b7f4552433732313a20617070726f76616c20746f2063757272656e74206f776e6560008201527f7200000000000000000000000000000000000000000000000000000000000000602082015250565b6000612e5e60218361252f565b9150612e6982612e02565b604082019050919050565b60006020820190508181036000830152612e8d81612e51565b9050919050565b7f4552433732313a20617070726f76652063616c6c6572206973206e6f7420746f60008201527f6b656e206f776e6572206e6f7220617070726f76656420666f7220616c6c0000602082015250565b6000612ef0603e8361252f565b9150612efb82612e94565b604082019050919050565b60006020820190508181036000830152612f1f81612ee3565b9050919050565b7f4552433732313a2063616c6c6572206973206e6f7420746f6b656e206f776e6560008201527f72206e6f7220617070726f766564000000000000000000000000000000000000602082015250565b6000612f82602e8361252f565b9150612f8d82612f26565b604082019050919050565b60006020820190508181036000830152612fb181612f75565b9050919050565b7f4f6e6c7920636f6e7472616374206f776e65722063616e20706572666f726d2060008201527f7468697320616374696f6e000000000000000000000000000000000000000000602082015250565b6000613014602b8361252f565b915061301f82612fb8565b604082019050919050565b6000602082019050818103600083015261304381613007565b9050919050565b7f4e46542063616e206265206275726e742061667465722077617272616e74792060008201527f65787069726174696f6e206f6e6c790000000000000000000000000000000000602082015250565b60006130a6602f8361252f565b91506130b18261304a565b604082019050919050565b600060208201905081810360008301526130d581613099565b9050919050565b7f4f6e6c79204e4654206f776e65722063616e20706572666f726d20746869732060008201527f616374696f6e0000000000000000000000000000000000000000000000000000602082015250565b600061313860268361252f565b9150613143826130dc565b604082019050919050565b600060208201905081810360008301526131678161312b565b9050919050565b7f50726f647563742057617272616e747920457870697265640000000000000000600082015250565b60006131a460188361252f565b91506131af8261316e565b602082019050919050565b600060208201905081810360008301526131d381613197565b9050919050565b7f4552433732313a20696e76616c696420746f6b656e2049440000000000000000600082015250565b600061321060188361252f565b915061321b826131da565b602082019050919050565b6000602082019050818103600083015261323f81613203565b9050919050565b7f4552433732313a2061646472657373207a65726f206973206e6f74206120766160008201527f6c6964206f776e65720000000000000000000000000000000000000000000000602082015250565b60006132a260298361252f565b91506132ad82613246565b604082019050919050565b600060208201905081810360008301526132d181613295565b9050919050565b7f4e487b7100000000000000000000000000000000000000000000000000000000600052601160045260246000fd5b6000613312826125df565b915061331d836125df565b9250828210156133305761332f6132d8565b5b828203905092915050565b6000613346826125df565b9150613351836125df565b9250827fffffffffffffffffffffffffffffffffffffffffffffffffffffffffffffffff03821115613386576133856132d8565b5b828201905092915050565b600081905092915050565b60006133a782612524565b6133b18185613391565b93506133c1818560208601612540565b80840191505092915050565b60006133d9828561339c565b91506133e5828461339c565b91508190509392505050565b6000606082019050613406600083018661291b565b61341360208301856129ad565b61342060408301846129ad565b949350505050565b7f4552433732313a207472616e736665722066726f6d20696e636f72726563742060008201527f6f776e6572000000000000000000000000000000000000000000000000000000602082015250565b600061348460258361252f565b915061348f82613428565b604082019050919050565b600060208201905081810360008301526134b381613477565b9050919050565b7f4552433732313a207472616e7366657220746f20746865207a65726f2061646460008201527f7265737300000000000000000000000000000000000000000000000000000000602082015250565b600061351660248361252f565b9150613521826134ba565b604082019050919050565b6000602082019050818103600083015261354581613509565b9050919050565b7f4552433732313a20617070726f766520746f2063616c6c657200000000000000600082015250565b600061358260198361252f565b915061358d8261354c565b602082019050919050565b600060208201905081810360008301526135b181613575565b9050919050565b7f4552433732313a207472616e7366657220746f206e6f6e20455243373231526560008201527f63656976657220696d706c656d656e7465720000000000000000000000000000602082015250565b600061361460328361252f565b915061361f826135b8565b604082019050919050565b6000602082019050818103600083015261364381613607565b9050919050565b7f45524337323155524953746f726167653a2055524920736574206f66206e6f6e60008201527f6578697374656e7420746f6b656e000000000000000000000000000000000000602082015250565b60006136a6602e8361252f565b91506136b18261364a565b604082019050919050565b600060208201905081810360008301526136d581613699565b9050919050565b600081519050919050565b600082825260208201905092915050565b6000613703826136dc565b61370d81856136e7565b935061371d818560208601612540565b61372681612573565b840191505092915050565b60006080820190506137466000830187612674565b6137536020830186612674565b613760604083018561291b565b818103606083015261377281846136f8565b905095945050505050565b60008151905061378c81612495565b92915050565b6000602082840312156137a8576137a761245f565b5b60006137b68482850161377d565b91505092915050565b60006137ca826125df565b91507fffffffffffffffffffffffffffffffffffffffffffffffffffffffffffffffff8214156137fd576137fc6132d8565b5b600182019050919050565b7f4e487b7100000000000000000000000000000000000000000000000000000000600052601260045260246000fd5b6000613842826125df565b915061384d836125df565b92508261385d5761385c613808565b5b828204905092915050565b6000613873826125df565b915061387e836125df565b92508261388e5761388d613808565b5b828206905092915050565b7f4e487b7100000000000000000000000000000000000000000000000000000000600052603260045260246000fd5b7f4552433732313a206d696e7420746f20746865207a65726f2061646472657373600082015250565b60006138fe60208361252f565b9150613909826138c8565b602082019050919050565b6000602082019050818103600083015261392d816138f1565b9050919050565b7f4552433732313a20746f6b656e20616c7265616479206d696e74656400000000600082015250565b600061396a601c8361252f565b915061397582613934565b602082019050919050565b600060208201905081810360008301526139998161395d565b905091905056fea2646970667358221220cb111b11c4b927976a8cc2a543eab97d8f06fe466031c3e2c0f6799677b0509864736f6c634300080b0033a26469706673582212202c8ed7ecd38389b7a49c6381c90763c2c91b889ef785709fc225340c30b9cfb864736f6c634300080b0033",
  "immutableReferences": {},
  "source": "// SPDX-License-Identifier: MIT\npragma solidity >=0.4.22 <0.9.0;\n\nimport \"@openzeppelin/contracts/utils/Counters.sol\";\nimport \"@openzeppelin/contracts/token/ERC721/extensions/ERC721URIStorage.sol\";\n\ncontract CollectionFactory {\n    event CollectionCreated(uint256 collectionId, address collectionAddress);\n\n    uint256 collectionCounter = 0;\n\n    mapping (uint256 => Collection) public idToCollection;\n\n    function createCollection(string memory _name, string memory _symbol) public {\n        collectionCounter += 1;\n        Collection newCollection = new Collection(_name, _symbol, msg.sender);\n        idToCollection[collectionCounter] = newCollection;\n        emit CollectionCreated(collectionCounter, address(newCollection));\n    }\n\n}\n\ncontract Collection is ERC721URIStorage {\n\n    using Counters for Counters.Counter;\n    Counters.Counter private _tokenIdCounter;\n    Counters.Counter private _complaintIdCounter;\n\n    address public collectionCreator;\n\n    enum Status{registered, underReview, underRepairment, repaired, underReplacement, replaced}\n\n    struct Product {\n        uint256 warrantyStart;\n        uint256 warrantyEnd;\n    }\n\n    struct Complaint {\n        uint256 tokenId;\n        string description; //can be removed if not used\n        Status complaintStatus;\n    }\n\n    mapping(uint256 => Product) public tokenIdtoProduct;\n    mapping(uint256 => Complaint) public complaintIdtoComplaint;\n\n    event ComplaintRegistered(uint256 complaintId, uint256 tokenId);\n    event ComplaintUpdated(uint256 complaintId, Status prevStatus, Status updatedStatus);\n\n    modifier onlyCreator() {\n        require(msg.sender == collectionCreator, 'Only contract owner can perform this action');\n        _;\n    }\n    \n    modifier onlyOwner(uint256 tokenId) {\n        require(msg.sender == ownerOf(tokenId), 'Only NFT owner can perform this action');\n        _;\n    }\n\n    constructor(string memory _name, string memory _symbol, address _creator) ERC721(_name, _symbol){\n        collectionCreator = _creator;\n    }\n\n    function safeMint(address to, string memory uri, uint256 warrantyPeriod) external onlyCreator returns(uint256){\n        uint256 tokenId = _tokenIdCounter.current();\n        _tokenIdCounter.increment();\n        _safeMint(to, tokenId);\n        _setTokenURI(tokenId, uri);\n        Product memory product = Product(\n            block.timestamp,\n            block.timestamp + warrantyPeriod\n        );\n        tokenIdtoProduct[tokenId] = product;\n        return tokenId;\n    }\n\n    function burn(uint256 tokenId) external onlyCreator{\n        Product memory product = tokenIdtoProduct[tokenId];\n        require(block.timestamp >= product.warrantyEnd, 'NFT can be burnt after warranty expiration only');\n\n        _burn(tokenId);\n    }\n    \n    function regComplaint(uint256 tokenId, string memory description) public onlyOwner(tokenId){\n        Product memory product = tokenIdtoProduct[tokenId];\n        require(block.timestamp <= product.warrantyEnd, 'Product Warranty Expired');\n        _complaintIdCounter.increment();\n        uint256 complaintId = _complaintIdCounter.current();\n        Complaint memory complaint = Complaint(\n            tokenId,\n            description,\n            Status.registered\n        );\n        complaintIdtoComplaint[complaintId] = complaint;\n        emit ComplaintRegistered(complaintId, tokenId);\n    }\n\n    function updateComplaintStatus(uint256 complaintId, Status status) public onlyCreator {\n        Complaint storage complaint = complaintIdtoComplaint[complaintId];\n        Status prevStatus = complaint.complaintStatus;\n        complaint.complaintStatus = status;\n        emit ComplaintUpdated(complaintId, prevStatus, status);\n    }\n\n    function transferNFT(address to, uint256 tokenId) public onlyOwner(tokenId){\n        transferFrom(msg.sender, to, tokenId);\n    }\n\n    function viewOwner(uint256 tokenId) public view returns(address) {\n        return ownerOf(tokenId);\n    }\n\n    function viewComplaintStatus(uint256 complaintId) public view returns(Complaint memory) {\n        Complaint memory complaint = complaintIdtoComplaint[complaintId];\n        return complaint;\n    }\n\n    function warrantyLeft(uint256 tokenId) public view returns(uint256) {\n        Product memory product = tokenIdtoProduct[tokenId];\n        return (product.warrantyEnd - block.timestamp);\n    }\n}",
  "sourcePath": "/Users/parv/Desktop/my-project/NFTWarranties/contracts/NFTWarranty.sol",
  "compiler": {
    "name": "solc",
    "version": "0.8.11+commit.d7f03943.Emscripten.clang"
  },
  "schemaVersion": "3.4.4",
  "updatedAt": "2022-07-30T05:52:01.280Z",
  "networkType": "ethereum",
  "devdoc": {
    "kind": "dev",
    "methods": {},
    "version": 1
  },
  "userdoc": {
    "kind": "user",
    "methods": {},
    "version": 1
  }
}