{
  "contractName": "NFTWarranty",
  "abi": [
    {
      "inputs": [
        {
          "internalType": "string",
          "name": "_name",
          "type": "string"
        },
        {
          "internalType": "string",
          "name": "_symbol",
          "type": "string"
        }
      ],
      "stateMutability": "nonpayable",
      "type": "constructor"
    },
    {
      "anonymous": false,
      "inputs": [
        {
          "indexed": true,
          "internalType": "address",
          "name": "owner",
          "type": "address"
        },
        {
          "indexed": true,
          "internalType": "address",
          "name": "approved",
          "type": "address"
        },
        {
          "indexed": true,
          "internalType": "uint256",
          "name": "tokenId",
          "type": "uint256"
        }
      ],
      "name": "Approval",
      "type": "event"
    },
    {
      "anonymous": false,
      "inputs": [
        {
          "indexed": true,
          "internalType": "address",
          "name": "owner",
          "type": "address"
        },
        {
          "indexed": true,
          "internalType": "address",
          "name": "operator",
          "type": "address"
        },
        {
          "indexed": false,
          "internalType": "bool",
          "name": "approved",
          "type": "bool"
        }
      ],
      "name": "ApprovalForAll",
      "type": "event"
    },
    {
      "anonymous": false,
      "inputs": [
        {
          "indexed": true,
          "internalType": "address",
          "name": "from",
          "type": "address"
        },
        {
          "indexed": true,
          "internalType": "address",
          "name": "to",
          "type": "address"
        },
        {
          "indexed": true,
          "internalType": "uint256",
          "name": "tokenId",
          "type": "uint256"
        }
      ],
      "name": "Transfer",
      "type": "event"
    },
    {
      "inputs": [
        {
          "internalType": "address",
          "name": "to",
          "type": "address"
        },
        {
          "internalType": "uint256",
          "name": "tokenId",
          "type": "uint256"
        }
      ],
      "name": "approve",
      "outputs": [],
      "stateMutability": "nonpayable",
      "type": "function"
    },
    {
      "inputs": [
        {
          "internalType": "address",
          "name": "owner",
          "type": "address"
        }
      ],
      "name": "balanceOf",
      "outputs": [
        {
          "internalType": "uint256",
          "name": "",
          "type": "uint256"
        }
      ],
      "stateMutability": "view",
      "type": "function",
      "constant": true
    },
    {
      "inputs": [
        {
          "internalType": "uint256",
          "name": "tokenId",
          "type": "uint256"
        }
      ],
      "name": "getApproved",
      "outputs": [
        {
          "internalType": "address",
          "name": "",
          "type": "address"
        }
      ],
      "stateMutability": "view",
      "type": "function",
      "constant": true
    },
    {
      "inputs": [
        {
          "internalType": "address",
          "name": "owner",
          "type": "address"
        },
        {
          "internalType": "address",
          "name": "operator",
          "type": "address"
        }
      ],
      "name": "isApprovedForAll",
      "outputs": [
        {
          "internalType": "bool",
          "name": "",
          "type": "bool"
        }
      ],
      "stateMutability": "view",
      "type": "function",
      "constant": true
    },
    {
      "inputs": [],
      "name": "name",
      "outputs": [
        {
          "internalType": "string",
          "name": "",
          "type": "string"
        }
      ],
      "stateMutability": "view",
      "type": "function",
      "constant": true
    },
    {
      "inputs": [
        {
          "internalType": "uint256",
          "name": "tokenId",
          "type": "uint256"
        }
      ],
      "name": "ownerOf",
      "outputs": [
        {
          "internalType": "address",
          "name": "",
          "type": "address"
        }
      ],
      "stateMutability": "view",
      "type": "function",
      "constant": true
    },
    {
      "inputs": [
        {
          "internalType": "address",
          "name": "from",
          "type": "address"
        },
        {
          "internalType": "address",
          "name": "to",
          "type": "address"
        },
        {
          "internalType": "uint256",
          "name": "tokenId",
          "type": "uint256"
        }
      ],
      "name": "safeTransferFrom",
      "outputs": [],
      "stateMutability": "nonpayable",
      "type": "function"
    },
    {
      "inputs": [
        {
          "internalType": "address",
          "name": "from",
          "type": "address"
        },
        {
          "internalType": "address",
          "name": "to",
          "type": "address"
        },
        {
          "internalType": "uint256",
          "name": "tokenId",
          "type": "uint256"
        },
        {
          "internalType": "bytes",
          "name": "data",
          "type": "bytes"
        }
      ],
      "name": "safeTransferFrom",
      "outputs": [],
      "stateMutability": "nonpayable",
      "type": "function"
    },
    {
      "inputs": [
        {
          "internalType": "address",
          "name": "operator",
          "type": "address"
        },
        {
          "internalType": "bool",
          "name": "approved",
          "type": "bool"
        }
      ],
      "name": "setApprovalForAll",
      "outputs": [],
      "stateMutability": "nonpayable",
      "type": "function"
    },
    {
      "inputs": [
        {
          "internalType": "bytes4",
          "name": "interfaceId",
          "type": "bytes4"
        }
      ],
      "name": "supportsInterface",
      "outputs": [
        {
          "internalType": "bool",
          "name": "",
          "type": "bool"
        }
      ],
      "stateMutability": "view",
      "type": "function",
      "constant": true
    },
    {
      "inputs": [],
      "name": "symbol",
      "outputs": [
        {
          "internalType": "string",
          "name": "",
          "type": "string"
        }
      ],
      "stateMutability": "view",
      "type": "function",
      "constant": true
    },
    {
      "inputs": [
        {
          "internalType": "uint256",
          "name": "tokenId",
          "type": "uint256"
        }
      ],
      "name": "tokenURI",
      "outputs": [
        {
          "internalType": "string",
          "name": "",
          "type": "string"
        }
      ],
      "stateMutability": "view",
      "type": "function",
      "constant": true
    },
    {
      "inputs": [
        {
          "internalType": "address",
          "name": "from",
          "type": "address"
        },
        {
          "internalType": "address",
          "name": "to",
          "type": "address"
        },
        {
          "internalType": "uint256",
          "name": "tokenId",
          "type": "uint256"
        }
      ],
      "name": "transferFrom",
      "outputs": [],
      "stateMutability": "nonpayable",
      "type": "function"
    },
    {
      "inputs": [
        {
          "internalType": "address",
          "name": "to",
          "type": "address"
        },
        {
          "internalType": "string",
          "name": "uri",
          "type": "string"
        }
      ],
      "name": "safeMint",
      "outputs": [
        {
          "internalType": "uint256",
          "name": "",
          "type": "uint256"
        }
      ],
      "stateMutability": "nonpayable",
      "type": "function"
    },
    {
      "inputs": [
        {
          "internalType": "uint256",
          "name": "_tokenId",
          "type": "uint256"
        }
      ],
      "name": "burn",
      "outputs": [],
      "stateMutability": "nonpayable",
      "type": "function"
    }
  ],
  "bytecode": "0x60806040523480156200001157600080fd5b5060405162002ef038038062002ef08339818101604052810190620000379190620002c2565b818181600090805190602001906200005192919062000075565b5080600190805190602001906200006a92919062000075565b5050505050620003ac565b828054620000839062000376565b90600052602060002090601f016020900481019282620000a75760008555620000f3565b82601f10620000c257805160ff1916838001178555620000f3565b82800160010185558215620000f3579182015b82811115620000f2578251825591602001919060010190620000d5565b5b50905062000102919062000106565b5090565b5b808211156200012157600081600090555060010162000107565b5090565b6000604051905090565b600080fd5b600080fd5b600080fd5b600080fd5b6000601f19601f8301169050919050565b7f4e487b7100000000000000000000000000000000000000000000000000000000600052604160045260246000fd5b6200018e8262000143565b810181811067ffffffffffffffff82111715620001b057620001af62000154565b5b80604052505050565b6000620001c562000125565b9050620001d3828262000183565b919050565b600067ffffffffffffffff821115620001f657620001f562000154565b5b620002018262000143565b9050602081019050919050565b60005b838110156200022e57808201518184015260208101905062000211565b838111156200023e576000848401525b50505050565b60006200025b6200025584620001d8565b620001b9565b9050828152602081018484840111156200027a57620002796200013e565b5b620002878482856200020e565b509392505050565b600082601f830112620002a757620002a662000139565b5b8151620002b984826020860162000244565b91505092915050565b60008060408385031215620002dc57620002db6200012f565b5b600083015167ffffffffffffffff811115620002fd57620002fc62000134565b5b6200030b858286016200028f565b925050602083015167ffffffffffffffff8111156200032f576200032e62000134565b5b6200033d858286016200028f565b9150509250929050565b7f4e487b7100000000000000000000000000000000000000000000000000000000600052602260045260246000fd5b600060028204905060018216806200038f57607f821691505b60208210811415620003a657620003a562000347565b5b50919050565b612b3480620003bc6000396000f3fe608060405234801561001057600080fd5b50600436106100f55760003560e01c80636352211e11610097578063b88d4fde11610066578063b88d4fde14610282578063c87b56dd1461029e578063d204c45e146102ce578063e985e9c5146102fe576100f5565b80636352211e146101e857806370a082311461021857806395d89b4114610248578063a22cb46514610266576100f5565b8063095ea7b3116100d3578063095ea7b31461017857806323b872dd1461019457806342842e0e146101b057806342966c68146101cc576100f5565b806301ffc9a7146100fa57806306fdde031461012a578063081812fc14610148575b600080fd5b610114600480360381019061010f9190611b04565b61032e565b6040516101219190611b4c565b60405180910390f35b610132610410565b60405161013f9190611c00565b60405180910390f35b610162600480360381019061015d9190611c58565b6104a2565b60405161016f9190611cc6565b60405180910390f35b610192600480360381019061018d9190611d0d565b6104e8565b005b6101ae60048036038101906101a99190611d4d565b610600565b005b6101ca60048036038101906101c59190611d4d565b610660565b005b6101e660048036038101906101e19190611c58565b610680565b005b61020260048036038101906101fd9190611c58565b6106cc565b60405161020f9190611cc6565b60405180910390f35b610232600480360381019061022d9190611da0565b61077e565b60405161023f9190611ddc565b60405180910390f35b610250610836565b60405161025d9190611c00565b60405180910390f35b610280600480360381019061027b9190611e23565b6108c8565b005b61029c60048036038101906102979190611f98565b6108de565b005b6102b860048036038101906102b39190611c58565b610940565b6040516102c59190611c00565b60405180910390f35b6102e860048036038101906102e391906120bc565b610a53565b6040516102f59190611ddc565b60405180910390f35b61031860048036038101906103139190612118565b610a8a565b6040516103259190611b4c565b60405180910390f35b60007f80ac58cd000000000000000000000000000000000000000000000000000000007bffffffffffffffffffffffffffffffffffffffffffffffffffffffff1916827bffffffffffffffffffffffffffffffffffffffffffffffffffffffff191614806103f957507f5b5e139f000000000000000000000000000000000000000000000000000000007bffffffffffffffffffffffffffffffffffffffffffffffffffffffff1916827bffffffffffffffffffffffffffffffffffffffffffffffffffffffff1916145b80610409575061040882610b1e565b5b9050919050565b60606000805461041f90612187565b80601f016020809104026020016040519081016040528092919081815260200182805461044b90612187565b80156104985780601f1061046d57610100808354040283529160200191610498565b820191906000526020600020905b81548152906001019060200180831161047b57829003601f168201915b5050505050905090565b60006104ad82610b88565b6004600083815260200190815260200160002060009054906101000a900473ffffffffffffffffffffffffffffffffffffffff169050919050565b60006104f3826106cc565b90508073ffffffffffffffffffffffffffffffffffffffff168373ffffffffffffffffffffffffffffffffffffffff161415610564576040517f08c379a000000000000000000000000000000000000000000000000000000000815260040161055b9061222b565b60405180910390fd5b8073ffffffffffffffffffffffffffffffffffffffff16610583610bd3565b73ffffffffffffffffffffffffffffffffffffffff1614806105b257506105b1816105ac610bd3565b610a8a565b5b6105f1576040517f08c379a00000000000000000000000000000000000000000000000000000000081526004016105e8906122bd565b60405180910390fd5b6105fb8383610bdb565b505050565b61061161060b610bd3565b82610c94565b610650576040517f08c379a00000000000000000000000000000000000000000000000000000000081526004016106479061234f565b60405180910390fd5b61065b838383610d29565b505050565b61067b838383604051806020016040528060008152506108de565b505050565b610689816106cc565b73ffffffffffffffffffffffffffffffffffffffff163373ffffffffffffffffffffffffffffffffffffffff16146106c057600080fd5b6106c981610f90565b50565b6000806002600084815260200190815260200160002060009054906101000a900473ffffffffffffffffffffffffffffffffffffffff169050600073ffffffffffffffffffffffffffffffffffffffff168173ffffffffffffffffffffffffffffffffffffffff161415610775576040517f08c379a000000000000000000000000000000000000000000000000000000000815260040161076c906123bb565b60405180910390fd5b80915050919050565b60008073ffffffffffffffffffffffffffffffffffffffff168273ffffffffffffffffffffffffffffffffffffffff1614156107ef576040517f08c379a00000000000000000000000000000000000000000000000000000000081526004016107e69061244d565b60405180910390fd5b600360008373ffffffffffffffffffffffffffffffffffffffff1673ffffffffffffffffffffffffffffffffffffffff168152602001908152602001600020549050919050565b60606001805461084590612187565b80601f016020809104026020016040519081016040528092919081815260200182805461087190612187565b80156108be5780601f10610893576101008083540402835291602001916108be565b820191906000526020600020905b8154815290600101906020018083116108a157829003601f168201915b5050505050905090565b6108da6108d3610bd3565b8383610fe3565b5050565b6108ef6108e9610bd3565b83610c94565b61092e576040517f08c379a00000000000000000000000000000000000000000000000000000000081526004016109259061234f565b60405180910390fd5b61093a84848484611150565b50505050565b606061094b82610b88565b600060066000848152602001908152602001600020805461096b90612187565b80601f016020809104026020016040519081016040528092919081815260200182805461099790612187565b80156109e45780601f106109b9576101008083540402835291602001916109e4565b820191906000526020600020905b8154815290600101906020018083116109c757829003601f168201915b5050505050905060006109f56111ac565b9050600081511415610a0b578192505050610a4e565b600082511115610a40578082604051602001610a289291906124a9565b60405160208183030381529060405292505050610a4e565b610a49846111c3565b925050505b919050565b600080610a60600761122b565b9050610a6c6007611239565b610a76848261124f565b610a80818461126d565b8091505092915050565b6000600560008473ffffffffffffffffffffffffffffffffffffffff1673ffffffffffffffffffffffffffffffffffffffff16815260200190815260200160002060008373ffffffffffffffffffffffffffffffffffffffff1673ffffffffffffffffffffffffffffffffffffffff16815260200190815260200160002060009054906101000a900460ff16905092915050565b60007f01ffc9a7000000000000000000000000000000000000000000000000000000007bffffffffffffffffffffffffffffffffffffffffffffffffffffffff1916827bffffffffffffffffffffffffffffffffffffffffffffffffffffffff1916149050919050565b610b91816112e1565b610bd0576040517f08c379a0000000000000000000000000000000000000000000000000000000008152600401610bc7906123bb565b60405180910390fd5b50565b600033905090565b816004600083815260200190815260200160002060006101000a81548173ffffffffffffffffffffffffffffffffffffffff021916908373ffffffffffffffffffffffffffffffffffffffff160217905550808273ffffffffffffffffffffffffffffffffffffffff16610c4e836106cc565b73ffffffffffffffffffffffffffffffffffffffff167f8c5be1e5ebec7d5bd14f71427d1e84f3dd0314c0f7b2291e5b200ac8c7c3b92560405160405180910390a45050565b600080610ca0836106cc565b90508073ffffffffffffffffffffffffffffffffffffffff168473ffffffffffffffffffffffffffffffffffffffff161480610ce25750610ce18185610a8a565b5b80610d2057508373ffffffffffffffffffffffffffffffffffffffff16610d08846104a2565b73ffffffffffffffffffffffffffffffffffffffff16145b91505092915050565b8273ffffffffffffffffffffffffffffffffffffffff16610d49826106cc565b73ffffffffffffffffffffffffffffffffffffffff1614610d9f576040517f08c379a0000000000000000000000000000000000000000000000000000000008152600401610d969061253f565b60405180910390fd5b600073ffffffffffffffffffffffffffffffffffffffff168273ffffffffffffffffffffffffffffffffffffffff161415610e0f576040517f08c379a0000000000000000000000000000000000000000000000000000000008152600401610e06906125d1565b60405180910390fd5b610e1a83838361134d565b610e25600082610bdb565b6001600360008573ffffffffffffffffffffffffffffffffffffffff1673ffffffffffffffffffffffffffffffffffffffff1681526020019081526020016000206000828254610e759190612620565b925050819055506001600360008473ffffffffffffffffffffffffffffffffffffffff1673ffffffffffffffffffffffffffffffffffffffff1681526020019081526020016000206000828254610ecc9190612654565b92505081905550816002600083815260200190815260200160002060006101000a81548173ffffffffffffffffffffffffffffffffffffffff021916908373ffffffffffffffffffffffffffffffffffffffff160217905550808273ffffffffffffffffffffffffffffffffffffffff168473ffffffffffffffffffffffffffffffffffffffff167fddf252ad1be2c89b69c2b068fc378daa952ba7f163c4a11628f55a4df523b3ef60405160405180910390a4610f8b838383611352565b505050565b610f9981611357565b6000600660008381526020019081526020016000208054610fb990612187565b905014610fe057600660008281526020019081526020016000206000610fdf91906119b5565b5b50565b8173ffffffffffffffffffffffffffffffffffffffff168373ffffffffffffffffffffffffffffffffffffffff161415611052576040517f08c379a0000000000000000000000000000000000000000000000000000000008152600401611049906126f6565b60405180910390fd5b80600560008573ffffffffffffffffffffffffffffffffffffffff1673ffffffffffffffffffffffffffffffffffffffff16815260200190815260200160002060008473ffffffffffffffffffffffffffffffffffffffff1673ffffffffffffffffffffffffffffffffffffffff16815260200190815260200160002060006101000a81548160ff0219169083151502179055508173ffffffffffffffffffffffffffffffffffffffff168373ffffffffffffffffffffffffffffffffffffffff167f17307eab39ab6107e8899845ad3d59bd9653f200f220920489ca2b5937696c31836040516111439190611b4c565b60405180910390a3505050565b61115b848484610d29565b61116784848484611474565b6111a6576040517f08c379a000000000000000000000000000000000000000000000000000000000815260040161119d90612788565b60405180910390fd5b50505050565b606060405180602001604052806000815250905090565b60606111ce82610b88565b60006111d86111ac565b905060008151116111f85760405180602001604052806000815250611223565b80611202846115fc565b6040516020016112139291906124a9565b6040516020818303038152906040525b915050919050565b600081600001549050919050565b6001816000016000828254019250508190555050565b61126982826040518060200160405280600081525061175d565b5050565b611276826112e1565b6112b5576040517f08c379a00000000000000000000000000000000000000000000000000000000081526004016112ac9061281a565b60405180910390fd5b806006600084815260200190815260200160002090805190602001906112dc9291906119f5565b505050565b60008073ffffffffffffffffffffffffffffffffffffffff166002600084815260200190815260200160002060009054906101000a900473ffffffffffffffffffffffffffffffffffffffff1673ffffffffffffffffffffffffffffffffffffffff1614159050919050565b505050565b505050565b6000611362826106cc565b90506113708160008461134d565b61137b600083610bdb565b6001600360008373ffffffffffffffffffffffffffffffffffffffff1673ffffffffffffffffffffffffffffffffffffffff16815260200190815260200160002060008282546113cb9190612620565b925050819055506002600083815260200190815260200160002060006101000a81549073ffffffffffffffffffffffffffffffffffffffff021916905581600073ffffffffffffffffffffffffffffffffffffffff168273ffffffffffffffffffffffffffffffffffffffff167fddf252ad1be2c89b69c2b068fc378daa952ba7f163c4a11628f55a4df523b3ef60405160405180910390a461147081600084611352565b5050565b60006114958473ffffffffffffffffffffffffffffffffffffffff166117b8565b156115ef578373ffffffffffffffffffffffffffffffffffffffff1663150b7a026114be610bd3565b8786866040518563ffffffff1660e01b81526004016114e0949392919061288f565b6020604051808303816000875af192505050801561151c57506040513d601f19601f8201168201806040525081019061151991906128f0565b60015b61159f573d806000811461154c576040519150601f19603f3d011682016040523d82523d6000602084013e611551565b606091505b50600081511415611597576040517f08c379a000000000000000000000000000000000000000000000000000000000815260040161158e90612788565b60405180910390fd5b805181602001fd5b63150b7a0260e01b7bffffffffffffffffffffffffffffffffffffffffffffffffffffffff1916817bffffffffffffffffffffffffffffffffffffffffffffffffffffffff1916149150506115f4565b600190505b949350505050565b60606000821415611644576040518060400160405280600181526020017f30000000000000000000000000000000000000000000000000000000000000008152509050611758565b600082905060005b6000821461167657808061165f9061291d565b915050600a8261166f9190612995565b915061164c565b60008167ffffffffffffffff81111561169257611691611e6d565b5b6040519080825280601f01601f1916602001820160405280156116c45781602001600182028036833780820191505090505b5090505b60008514611751576001826116dd9190612620565b9150600a856116ec91906129c6565b60306116f89190612654565b60f81b81838151811061170e5761170d6129f7565b5b60200101907effffffffffffffffffffffffffffffffffffffffffffffffffffffffffffff1916908160001a905350600a8561174a9190612995565b94506116c8565b8093505050505b919050565b61176783836117db565b6117746000848484611474565b6117b3576040517f08c379a00000000000000000000000000000000000000000000000000000000081526004016117aa90612788565b60405180910390fd5b505050565b6000808273ffffffffffffffffffffffffffffffffffffffff163b119050919050565b600073ffffffffffffffffffffffffffffffffffffffff168273ffffffffffffffffffffffffffffffffffffffff16141561184b576040517f08c379a000000000000000000000000000000000000000000000000000000000815260040161184290612a72565b60405180910390fd5b611854816112e1565b15611894576040517f08c379a000000000000000000000000000000000000000000000000000000000815260040161188b90612ade565b60405180910390fd5b6118a06000838361134d565b6001600360008473ffffffffffffffffffffffffffffffffffffffff1673ffffffffffffffffffffffffffffffffffffffff16815260200190815260200160002060008282546118f09190612654565b92505081905550816002600083815260200190815260200160002060006101000a81548173ffffffffffffffffffffffffffffffffffffffff021916908373ffffffffffffffffffffffffffffffffffffffff160217905550808273ffffffffffffffffffffffffffffffffffffffff16600073ffffffffffffffffffffffffffffffffffffffff167fddf252ad1be2c89b69c2b068fc378daa952ba7f163c4a11628f55a4df523b3ef60405160405180910390a46119b160008383611352565b5050565b5080546119c190612187565b6000825580601f106119d357506119f2565b601f0160209004906000526020600020908101906119f19190611a7b565b5b50565b828054611a0190612187565b90600052602060002090601f016020900481019282611a235760008555611a6a565b82601f10611a3c57805160ff1916838001178555611a6a565b82800160010185558215611a6a579182015b82811115611a69578251825591602001919060010190611a4e565b5b509050611a779190611a7b565b5090565b5b80821115611a94576000816000905550600101611a7c565b5090565b6000604051905090565b600080fd5b600080fd5b60007fffffffff0000000000000000000000000000000000000000000000000000000082169050919050565b611ae181611aac565b8114611aec57600080fd5b50565b600081359050611afe81611ad8565b92915050565b600060208284031215611b1a57611b19611aa2565b5b6000611b2884828501611aef565b91505092915050565b60008115159050919050565b611b4681611b31565b82525050565b6000602082019050611b616000830184611b3d565b92915050565b600081519050919050565b600082825260208201905092915050565b60005b83811015611ba1578082015181840152602081019050611b86565b83811115611bb0576000848401525b50505050565b6000601f19601f8301169050919050565b6000611bd282611b67565b611bdc8185611b72565b9350611bec818560208601611b83565b611bf581611bb6565b840191505092915050565b60006020820190508181036000830152611c1a8184611bc7565b905092915050565b6000819050919050565b611c3581611c22565b8114611c4057600080fd5b50565b600081359050611c5281611c2c565b92915050565b600060208284031215611c6e57611c6d611aa2565b5b6000611c7c84828501611c43565b91505092915050565b600073ffffffffffffffffffffffffffffffffffffffff82169050919050565b6000611cb082611c85565b9050919050565b611cc081611ca5565b82525050565b6000602082019050611cdb6000830184611cb7565b92915050565b611cea81611ca5565b8114611cf557600080fd5b50565b600081359050611d0781611ce1565b92915050565b60008060408385031215611d2457611d23611aa2565b5b6000611d3285828601611cf8565b9250506020611d4385828601611c43565b9150509250929050565b600080600060608486031215611d6657611d65611aa2565b5b6000611d7486828701611cf8565b9350506020611d8586828701611cf8565b9250506040611d9686828701611c43565b9150509250925092565b600060208284031215611db657611db5611aa2565b5b6000611dc484828501611cf8565b91505092915050565b611dd681611c22565b82525050565b6000602082019050611df16000830184611dcd565b92915050565b611e0081611b31565b8114611e0b57600080fd5b50565b600081359050611e1d81611df7565b92915050565b60008060408385031215611e3a57611e39611aa2565b5b6000611e4885828601611cf8565b9250506020611e5985828601611e0e565b9150509250929050565b600080fd5b600080fd5b7f4e487b7100000000000000000000000000000000000000000000000000000000600052604160045260246000fd5b611ea582611bb6565b810181811067ffffffffffffffff82111715611ec457611ec3611e6d565b5b80604052505050565b6000611ed7611a98565b9050611ee38282611e9c565b919050565b600067ffffffffffffffff821115611f0357611f02611e6d565b5b611f0c82611bb6565b9050602081019050919050565b82818337600083830152505050565b6000611f3b611f3684611ee8565b611ecd565b905082815260208101848484011115611f5757611f56611e68565b5b611f62848285611f19565b509392505050565b600082601f830112611f7f57611f7e611e63565b5b8135611f8f848260208601611f28565b91505092915050565b60008060008060808587031215611fb257611fb1611aa2565b5b6000611fc087828801611cf8565b9450506020611fd187828801611cf8565b9350506040611fe287828801611c43565b925050606085013567ffffffffffffffff81111561200357612002611aa7565b5b61200f87828801611f6a565b91505092959194509250565b600067ffffffffffffffff82111561203657612035611e6d565b5b61203f82611bb6565b9050602081019050919050565b600061205f61205a8461201b565b611ecd565b90508281526020810184848401111561207b5761207a611e68565b5b612086848285611f19565b509392505050565b600082601f8301126120a3576120a2611e63565b5b81356120b384826020860161204c565b91505092915050565b600080604083850312156120d3576120d2611aa2565b5b60006120e185828601611cf8565b925050602083013567ffffffffffffffff81111561210257612101611aa7565b5b61210e8582860161208e565b9150509250929050565b6000806040838503121561212f5761212e611aa2565b5b600061213d85828601611cf8565b925050602061214e85828601611cf8565b9150509250929050565b7f4e487b7100000000000000000000000000000000000000000000000000000000600052602260045260246000fd5b6000600282049050600182168061219f57607f821691505b602082108114156121b3576121b2612158565b5b50919050565b7f4552433732313a20617070726f76616c20746f2063757272656e74206f776e6560008201527f7200000000000000000000000000000000000000000000000000000000000000602082015250565b6000612215602183611b72565b9150612220826121b9565b604082019050919050565b6000602082019050818103600083015261224481612208565b9050919050565b7f4552433732313a20617070726f76652063616c6c6572206973206e6f7420746f60008201527f6b656e206f776e6572206e6f7220617070726f76656420666f7220616c6c0000602082015250565b60006122a7603e83611b72565b91506122b28261224b565b604082019050919050565b600060208201905081810360008301526122d68161229a565b9050919050565b7f4552433732313a2063616c6c6572206973206e6f7420746f6b656e206f776e6560008201527f72206e6f7220617070726f766564000000000000000000000000000000000000602082015250565b6000612339602e83611b72565b9150612344826122dd565b604082019050919050565b600060208201905081810360008301526123688161232c565b9050919050565b7f4552433732313a20696e76616c696420746f6b656e2049440000000000000000600082015250565b60006123a5601883611b72565b91506123b08261236f565b602082019050919050565b600060208201905081810360008301526123d481612398565b9050919050565b7f4552433732313a2061646472657373207a65726f206973206e6f74206120766160008201527f6c6964206f776e65720000000000000000000000000000000000000000000000602082015250565b6000612437602983611b72565b9150612442826123db565b604082019050919050565b600060208201905081810360008301526124668161242a565b9050919050565b600081905092915050565b600061248382611b67565b61248d818561246d565b935061249d818560208601611b83565b80840191505092915050565b60006124b58285612478565b91506124c18284612478565b91508190509392505050565b7f4552433732313a207472616e736665722066726f6d20696e636f72726563742060008201527f6f776e6572000000000000000000000000000000000000000000000000000000602082015250565b6000612529602583611b72565b9150612534826124cd565b604082019050919050565b600060208201905081810360008301526125588161251c565b9050919050565b7f4552433732313a207472616e7366657220746f20746865207a65726f2061646460008201527f7265737300000000000000000000000000000000000000000000000000000000602082015250565b60006125bb602483611b72565b91506125c68261255f565b604082019050919050565b600060208201905081810360008301526125ea816125ae565b9050919050565b7f4e487b7100000000000000000000000000000000000000000000000000000000600052601160045260246000fd5b600061262b82611c22565b915061263683611c22565b925082821015612649576126486125f1565b5b828203905092915050565b600061265f82611c22565b915061266a83611c22565b9250827fffffffffffffffffffffffffffffffffffffffffffffffffffffffffffffffff0382111561269f5761269e6125f1565b5b828201905092915050565b7f4552433732313a20617070726f766520746f2063616c6c657200000000000000600082015250565b60006126e0601983611b72565b91506126eb826126aa565b602082019050919050565b6000602082019050818103600083015261270f816126d3565b9050919050565b7f4552433732313a207472616e7366657220746f206e6f6e20455243373231526560008201527f63656976657220696d706c656d656e7465720000000000000000000000000000602082015250565b6000612772603283611b72565b915061277d82612716565b604082019050919050565b600060208201905081810360008301526127a181612765565b9050919050565b7f45524337323155524953746f726167653a2055524920736574206f66206e6f6e60008201527f6578697374656e7420746f6b656e000000000000000000000000000000000000602082015250565b6000612804602e83611b72565b915061280f826127a8565b604082019050919050565b60006020820190508181036000830152612833816127f7565b9050919050565b600081519050919050565b600082825260208201905092915050565b60006128618261283a565b61286b8185612845565b935061287b818560208601611b83565b61288481611bb6565b840191505092915050565b60006080820190506128a46000830187611cb7565b6128b16020830186611cb7565b6128be6040830185611dcd565b81810360608301526128d08184612856565b905095945050505050565b6000815190506128ea81611ad8565b92915050565b60006020828403121561290657612905611aa2565b5b6000612914848285016128db565b91505092915050565b600061292882611c22565b91507fffffffffffffffffffffffffffffffffffffffffffffffffffffffffffffffff82141561295b5761295a6125f1565b5b600182019050919050565b7f4e487b7100000000000000000000000000000000000000000000000000000000600052601260045260246000fd5b60006129a082611c22565b91506129ab83611c22565b9250826129bb576129ba612966565b5b828204905092915050565b60006129d182611c22565b91506129dc83611c22565b9250826129ec576129eb612966565b5b828206905092915050565b7f4e487b7100000000000000000000000000000000000000000000000000000000600052603260045260246000fd5b7f4552433732313a206d696e7420746f20746865207a65726f2061646472657373600082015250565b6000612a5c602083611b72565b9150612a6782612a26565b602082019050919050565b60006020820190508181036000830152612a8b81612a4f565b9050919050565b7f4552433732313a20746f6b656e20616c7265616479206d696e74656400000000600082015250565b6000612ac8601c83611b72565b9150612ad382612a92565b602082019050919050565b60006020820190508181036000830152612af781612abb565b905091905056fea264697066735822122022b3c1ced5f286da030e978bf792adf4f89b3df4d9ce424d3264372259d3b62064736f6c634300080b0033",
  "immutableReferences": {},
  "source": "// SPDX-License-Identifier: MIT\npragma solidity >=0.4.22 <0.9.0;\n\nimport \"@openzeppelin/contracts/utils/Counters.sol\";\nimport \"@openzeppelin/contracts/token/ERC721/extensions/ERC721URIStorage.sol\";\n\ncontract NFTWarranty is ERC721URIStorage {\n\n    using Counters for Counters.Counter;\n    Counters.Counter private _tokenIdCounter;\n\n    constructor(string memory _name, string memory _symbol) ERC721(_name, _symbol){\n\n    }\n\n    function safeMint( address to, string memory uri) external returns(uint256){\n        uint256 tokenId = _tokenIdCounter.current();\n        _tokenIdCounter.increment();\n        _safeMint(to, tokenId);\n        _setTokenURI(tokenId, uri);\n        return tokenId;\n    }\n\n    function burn(uint256 _tokenId) external {\n        require(msg.sender == ownerOf(_tokenId));\n\n        _burn(_tokenId);\n    }\n}",
  "sourcePath": "/Users/parv/Desktop/my-project/NFTWarranties/contracts/NFTWarranty.sol",
  "compiler": {
    "name": "solc",
    "version": "0.8.11+commit.d7f03943.Emscripten.clang"
  },
  "schemaVersion": "3.4.4",
  "updatedAt": "2022-07-17T11:41:38.904Z",
  "networkType": "ethereum",
  "devdoc": {
    "kind": "dev",
    "methods": {
      "approve(address,uint256)": {
        "details": "See {IERC721-approve}."
      },
      "balanceOf(address)": {
        "details": "See {IERC721-balanceOf}."
      },
      "getApproved(uint256)": {
        "details": "See {IERC721-getApproved}."
      },
      "isApprovedForAll(address,address)": {
        "details": "See {IERC721-isApprovedForAll}."
      },
      "name()": {
        "details": "See {IERC721Metadata-name}."
      },
      "ownerOf(uint256)": {
        "details": "See {IERC721-ownerOf}."
      },
      "safeTransferFrom(address,address,uint256)": {
        "details": "See {IERC721-safeTransferFrom}."
      },
      "safeTransferFrom(address,address,uint256,bytes)": {
        "details": "See {IERC721-safeTransferFrom}."
      },
      "setApprovalForAll(address,bool)": {
        "details": "See {IERC721-setApprovalForAll}."
      },
      "supportsInterface(bytes4)": {
        "details": "See {IERC165-supportsInterface}."
      },
      "symbol()": {
        "details": "See {IERC721Metadata-symbol}."
      },
      "tokenURI(uint256)": {
        "details": "See {IERC721Metadata-tokenURI}."
      },
      "transferFrom(address,address,uint256)": {
        "details": "See {IERC721-transferFrom}."
      }
    },
    "version": 1
  },
  "userdoc": {
    "kind": "user",
    "methods": {},
    "version": 1
  }
}